:1000000000308A00D7280000FF00030E8301A10002
:100010007F08A0000A08A7008A01A00E0408A20019
:100020007708A3007808A4007908A5007A08A6003C
:10003000831383120B1E1E288B18A7282208840006
:100040002308F7002408F8002508F9002608FA001C
:1000500027088A00210E8300FF0E7F0E09002F3033
:10006000840083130008031943280130F800F701C6
:10007000F70B3828F80B37284A30F700F70B3E28E3
:100080004128800B352808002D08F83E03189228D7
:10009000083E9B280130850092280430AE00FA30DB
:1000A000AF002F20AE0B4F2801308500922808307A
:1000B000AE00FA30AF002F20AE0B5928013085007A
:1000C00092280C30AE00FA30AF002F20AE0B632820
:1000D0000130850092281030AE00FA30AF002F209A
:1000E000AE0B6D280130850092281430AE00FA3036
:1000F000AF002F20AE0B77280130850092281830F2
:10010000AE00FA30AF002F20AE0B81280130850001
:1001100092281C30AE00FA30AF002F20AE0B8B2897
:10012000013085000430AE00FA30AF002F20AE0B56
:1001300094288501AA280A108A100A1182074A28E1
:100140004D28572861286B2875287F28892828087A
:10015000AD0044288B108A111E28FF3083168600BC
:1001600000308500831285010230A800E4280B16B8
:100170008316011783128B15C0308B04E528861C6B
:10018000C6282A08A9000130AA00C9282A08A900FF
:10019000AA01A908031DD6282A0BD6282808063C40
:1001A0000318D428A801D6282B08A807E828030894
:1001B0001F39830083168E158312A801A901AA0195
:1001C00007309F008313AD28B7280130AB00BF284C
:0401D000E5286300BB
:02400E00703F01
:00000001FF
;PIC16F628A
;CRC=E1C1  CREATED="17-abr-14 22:49"
