:1000000000308A0048280000FF00030E8301A10091
:100010007F08A0000A08A7008A01A00E0408A20019
:100020007708A3007808A4007908A5007A08A6003C
:10003000831383120B1E1E288B182F28220884007E
:100040002308F7002408F8002508F9002608FA001C
:1000500027088A00210E8300FF0E7F0E0900051C71
:1000600033280510342805148B108A111E28FF3000
:1000700083168600003085008312850107309F00BB
:1000800052280B1683160117C03083128B04532895
:1000900003081F39830083168E15073083129F00D3
:0A00A000831337284128532863001A
:02400E00703F01
:00000001FF
;PIC16F628A
;CRC=09A0  CREATED="21-jun-14 19:20"
