:1000000001308A00902900000A108A100A11820724
:1000100028340C34013406340A108A100A1182077D
:10002000D734EE34DE34BE34ED34DD34BD34EB345D
:10003000DB34BB34E734B73477347B347D347E34FF
:1000400080340A108A100A11820730343134323475
:100050003334343435343634373438343934413445
:10006000423443344434453446340A000C002A30C8
:1000700084008313000803194A280630F800F701AA
:10008000F70B4028F80B3F287B30F700F70B46288A
:10009000800B3D280800310EF039F7000F300805BD
:1000A00077048800000008140230F700F70B562888
:1000B00059280000081008008810F03083168800C6
:1000C000831208150000081400000808080E0F39F4
:1000D000B1000810000008146D286E280000080800
:1000E000080E0F39B0000810003083168800831204
:1000F000310EF700F030F70577083004F800780883
:10010000B000B01B5D282E1C88102E18881400002B
:100110000811000008102F0EB0000F30B005300895
:10012000B1004B202F080F39B000B1004B20080060
:1001300000308316880083128810081108100F30D1
:10014000AA0037200130A5002508033C031CB02875
:100150000330B1004B200530AA003720A50AA4289F
:100160000230B1004B20A5012508033C031CC12827
:1001700025080420A600AE012608AF005C20A50AD1
:10018000B4288A110A129D29F03083168600F030B7
:10019000831286008316811383120B100130A20094
:1001A0000B1CD0281E30AA003720FE30A0002008EB
:1001B00086002008A1000310200D013EA000A20A25
:1001C0002208043C031CE828210806020319D7284A
:1001D00021080602031DEE288316C7280608A10081
:1001E000A20122080C2021020319FC2822080F3C3E
:1001F000031CFC28A20AF1282208103C031D022936
:100200008316C72822082120F800A1000B100B1C20
:1002100007291E30AA0037202108F8008A110A1287
:100220009E2929080C3A03191C29063A0319242986
:10023000023A03193A293F29AE010130AF005C2090
:100240000230AA00372044290130AA000230AB0056
:100250002B0B2B292E294030AC002F29AC0101306B
:100260002A02AC072C088038AD00AE012D08AF0083
:100270005C204429AE011030AF005C2044290130DD
:10028000AE002908AF005C2008000B08A5008B1306
:10029000831603178C170C140000000083120C083F
:1002A0007F3903198C290313A60003170D080313C4
:1002B000A70003170F080313A8002608A90011219F
:1002C000270803178D000313280803178F008316D0
:1002D0008C170C140000000083120C0D0E0D7F39DA
:1002E00003198C290313A60003170D080313A70095
:1002F00003170F080313A8002608A90011212708D7
:1003000003178D000313280803178F008D0A0319A4
:100310008F0A0313482903170313A51B8B17080023
:1003200003081F39830083161F149F141F159F1184
:1003300007309C00831383129828C4287808A300F0
:10034000A3080319C1292308A90011213230AA00EA
:100350003720A40A2408103C031DB52935300317A3
:100360008D0000308F00031345212408203C031D1D
:10037000C129363003178D0000308F00031345214B
:06038000A4019D296300A9
:02400E00723FFF
:00000001FF
;PIC16F877A
;CRC=2368  CREATED="17-jun-14 10:47"
