:1000000002308A000D2A0000FF00030E8301A100C8
:100010000A08A0008A010408A2007708A300780853
:10002000A4007908A5007A08A600831383128B1D0B
:100030001B280B1830288B1E1F280B193328220869
:1000400084002308F7002408F8002508F900260892
:10005000FA0020088A00210E8300FF0E7F0E09009F
:100060008A110A1268288A110A12B6280A108A1000
:100070000A11820728340C34013406343808F80099
:10008000031946280310B70CF80B42280130B705B6
:10009000B808031D4E280030F8005228380B5228AB
:1000A0000130F8000800373084008313000803197A
:1000B00067280330F800F701F70B5C28F80B5B2882
:1000C0003C30F700F70B62286528800B59280800A0
:1000D0000608A9002908B7000430B8003E20F80837
:1000E000031D7C28E030AA0029080F39AA0401303A
:1000F000AC000A30B70053202908B7000530B8001B
:100100003E20F808031D8E28D030AA0029080F3998
:10011000AA040130AC000A30B70053202908B70008
:100120000630B8003E20F808031DA028B030AA0011
:1001300029080F39AA040130AC000A30B700532057
:100140002908B7000730B8003E20F808031DB22880
:100150007030AA0029080F39AA040130AC000A3017
:10016000B70053200B108A110A121F2881010608BC
:10017000A8000E3086000A30B70053200B18D32891
:100180000D3086000A30B70053200B18D3280B30EF
:1001900086000A30B70053200B18D328073086009A
:1001A0000A30B70053200B118A110A121F28350E8E
:1001B000F039F7000F3008057704880000000814B4
:1001C000E128E2280000081008008810F0308316AB
:1001D0008800831208150000081400000808080EA3
:1001E0000F39B500081000000814F6280808080E9A
:1001F0000F39B40008100030831688008312350EC2
:10020000F700F030F70577083404F8007808B400F8
:10021000B41BE628321C881032188814000008111C
:1002200000000810330EB4000F30B4053408B500D8
:10023000D72033080F39B400B500D7200800F030BC
:1002400083168600003088000030880083128810F2
:1002500008110810A7018B1BA7178B130F30B700CD
:100260005320A71B8B170130AD002D08033C031C46
:1002700047290330B500D720A7018B1BA7178B1385
:100280000530B7005320A71B8B17AD0A3529023064
:10029000B500D720AD012D08033C031C58292D08BB
:1002A0003620AE00B2012E08B300E520AD0A4B297E
:1002B0008A110A121B2A83160108C03981001B30DB
:1002C000831281008B168B1583168113C030831225
:1002D0008B048A110A121C2A2C0B0A2A2A08EE3CCB
:1002E000031D74293730AB002A08ED3C031D7A2921
:1002F0003430AB002A08EB3C031D80293130AB00C1
:100300002A08E73C031D86292F30AB002A08DE3C73
:10031000031D8C293830AB002A08DD3C031D9229CF
:100320003530AB002A08DB3C031D98293230AB0086
:100330002A08D73C031D9E293030AB002A08BE3C5A
:10034000031DA4293930AB002A08BD3C031DAA298E
:100350003630AB002A08BB3C031DB0293330AB005C
:100360002A08B73C031DB6294530AB002A087E3C5D
:10037000031DBC294130AB002A087D3C031DC22966
:100380004230AB002A087B3C031DC8294330AB0038
:100390002A08773C031DCE294430AB002B08AD0062
:1003A0002D080C3A0319DB29063A0319E929023A08
:1003B0000319FF29042AB2010130B300E520A70187
:1003C0008B1BA7178B130230B7005320A71B8B176B
:1003D000092A0130AE000230AF002F0BF029F329BB
:1003E0004030B000F429B00101302E02B0073008CF
:1003F0008038B100B2013108B300E520092AB2010A
:100400001030B300E520092A0130B2002D08B300F6
:10041000E520AC018A110A121D2A03081F39830046
:10042000AC0183161F149F141F159F1107309C00E9
:10043000831383121F295B296C29A7018B1BA71724
:100440008B133230B7005320A71B8B171C2A630075
:02400E00723FFF
:00000001FF
;PIC16F877A
;CRC=5C7A  CREATED="19-jun-14 13:09"
