:1000000000308A00C4280000FF00030E8301A10015
:100010000A08A0008A010408A2007708A300780853
:10002000A4007908A5007A08A600831383120B1E8A
:100030001B288B1830288B1E1F280B1933282208E9
:1000400084002308F7002408F8002508F900260892
:10005000FA0020088A00210E8300FF0E7F0E09009F
:100060008A110A1288288A110A128F2831308400D6
:100070008313000803194A280330F800F701F70B2F
:100080003F28F80B3E283C30F700F70B452848285E
:10009000800B3C2808003008F83E03187528083EFD
:1000A0007C28081475280130B10036200814752802
:1000B0000230B1003620081475280330B100362014
:1000C000081475280430B10036200814752805304E
:1000D000B1003620081475280630B1003620081407
:1000E00075280730B100362008140130B1003620E1
:1000F00008108A110A128B280A108A100A11820726
:100100005128532858285D28622867286C287128B0
:100110002708B0004B288B108A110A121F281B30A9
:1001200081000B118A110A121F28FF3083168600E6
:1001300000308800831288010230A7008A110A1259
:10014000DB280B1683160117C03083128B048A112B
:100150000A12DC28861CB1282908A8000130A90051
:10016000B4282908A800A901A808031DC128290B43
:10017000C1282708063C0318BF28A701C1282E085C
:10018000A7078A110A12DF2803081F398300A70175
:10019000A801A9010A30AA00DC30AB000230AC0093
:1001A000AD0183161F149F141F159F1107309C006B
:1001B000831383129528A1280130AE00AA28DC28D9
:0201C0006300DA
:02400E00723FFF
:00000001FF
;PIC16F877A
;CRC=3113  CREATED="13-abr-14 11:39"
