:10000000000003308A00F12B0A108A100A118207BF
:1000100028340C34013406340C2B3A1025330000FC
:100020002030831698000F3099009030831298008A
:1000300099019A0180308316870083128A110A126F
:10004000FE2B353084008313000803193528033054
:10005000F800F701F70B2A28F80B29283C30F700A5
:10006000F70B30283328800B272808003C0EF03986
:10007000F7000F30080577048800000008144028B6
:1000800041280000081008008810F030831688000E
:10009000831208150000081400000808080E0F3924
:1000A000BC0008100000081455280808080E0F3975
:1000B000BB00081000308316880083123C0EF70046
:1000C000F030F70577083B04F8007808BB00BB1B4D
:1000D0004528391C881039188814000008110000C0
:1000E00008103A0EBB000F30BB053B08BC003620A1
:1000F0003A080F39BB00BC003620080000308316D8
:10010000880083128810081108100F30B5002120D4
:100110000130A7002708033C031C96280330BC00CD
:1001200036200530B5002120A70A8A280230BC00FD
:100130003620A7012708033C031CA7282708042012
:10014000A800B9012808BA004420A70A9A288A11F1
:100150000A120C2C8E30F7002808F8002708F90046
:10016000FA01F808031DBE287908F800F9010830E3
:10017000F702F808031DBE28F701C6280310F81B74
:10018000C528F90DF80DF703BE28F8138A110A12D5
:10019000232C340803193929BC00380803193929DC
:1001A000BC070318DA287F30BC02031C3929031965
:1001B0003929DE288130BC07031839293C08F700AB
:1001C000F801F901FA013508C000C0173608BF0070
:1001D0003708BE001830BC00BD013E1C07293B0893
:1001E000FA07031CF928F90A031DF928F80A03196C
:1001F000BD173A08F907031C0029F80A0319BD17AF
:100200003908B600B6173608F8070318BD17BD0D34
:10021000F80CF90CFA0CC00CBF0CBE0C0310BC0B94
:10022000EC280130F70703183929F81B1E29C00DE7
:10023000FA0DF90DF80DF70303193929C01F2F29FD
:10024000FA0A031D2F29F90A031D2F29F80A031D95
:100250002F29F80CF90CFA0CF70A0319392935087B
:10026000BD003908BD06BD1F3729F8173D29F81311
:100270003D29F701F801F901FA0108002B080319DB
:10028000032AB7002F080319032AB702031C4D29BC
:100290007F30B7070318032A53298130B702031CA4
:1002A000032A0319032A3708F700F801F901FA01B4
:1002B000B6012C08B500B5172D08B4002E08B30000
:1002C0001930B7003208B302031876290130B4029E
:1002D00003187629B50203187629B6020318762981
:1002E000B60AB50AB40A3208B307A8293108B4021D
:1002F000031891290130B50203189129B602031899
:100300009129B60AB50A3108B4073208B307031CAD
:10031000A829B40A031DA829B50A031DA829B60AED
:10032000A82930088038B5020318A7290130B60281
:100330000318A729B60A30088038B5073108B40772
:10034000031C8529B50A031D8529B60A85297A1457
:10035000B70BAB29B6290310B30DB40DB50DB60D0F
:100360000310FA0DF90DF80DB80D6229381CBE29DD
:100370000310F80CF90CFA0CB80CC129F703031997
:10038000032AB81BEA290310B30DB40DB50DB60D41
:100390003208B3020318D6290130B4020318D62953
:1003A000B5020318D629B602031CF9293108B40294
:1003B0000318E1290130B5020318E129B602031C34
:1003C000F92930088038B5020318EA290130B6024D
:1003D000031CF929FA0A031DF929F90A031DF92951
:1003E000F80A031DF929F70A0319032AF80CF90C76
:1003F000FA0C2C08B7003008B706B71F012AF81707
:10040000072AF813072AF701F801F901FA018A11FE
:100410000A12552C8E30F7002708F7022808F90039
:100420002908F800F917F7080319212A0310F90819
:10043000031D1D2AF8080319212AF90CF80CF70BE3
:10044000162AA81F282AF809F909F80A0319F90A2F
:100450008A110A12662C270899001030F700F70B52
:100460002F2A00008A110A126E2C34080C3A031944
:10047000402A063A0319482A023A03195F2A642AD5
:10048000B9010130BA0044200230B5002120692AA8
:100490000130B5000230B600360B4F2A522A4030E8
:1004A000B700532AB70101303502B7073708803843
:1004B000B800B9013808BA0044200000692AB9011F
:1004C0001030BA004420692A0130B9003408BA005B
:1004D000442008000B08A8008B13831603178C1701
:1004E0000C140000000003189C2A83120C087F39AA
:1004F0000313A90003170D080313AA0003170F081D
:100500000313AB002908B40035222A0803178D0015
:1005100003132B0803178F0083168C170C1400008D
:10052000000083120313A70B962A992A8316031738
:100530009C2ABB2A8316031783120C0D0E0D7F39DC
:100540000313A90003170D080313AA0003170F08CC
:100550000313AB002908B40035222A0803178D00C5
:1005600003132B0803178F008D0A03198F0A03103A
:100570000313A70B6D2AA81B8B178A110A12782C5C
:100580008318C52A3C3084008313F701F801F90170
:10059000FA01BC01BD01BE01BF013B083A043904A8
:1005A00038040319032B2030C0000310B40DB50D1F
:1005B000B60DB70DBC0DBD0DBE0DBF0D3B083F0206
:1005C000031DEC2A3A083E02031DEC2A39083D02BD
:1005D000031DEC2A38083C02031CFD2A3808BC0223
:1005E0003908031C390FBD023A08031C3A0FBE023A
:1005F0003B08031C3B0FBF020314F70DF80DF90D68
:10060000FA0DC00BD52A3C088000840A3D08800002
:10061000840A3E088000840A3F088000080004081D
:10062000AC002B08AE0003192E2B2A08B7002908AE
:10063000B6002808B5002708B400BB01BA01203075
:10064000B9008230B800C9207A08AA007908A90048
:100650007808A8007708A700AE0B152B2A08B7006A
:100660002908B6002808B5002708B4003408B63CAD
:10067000B400FA013508B800B5170310B50CB60C74
:10068000B70CFA0CF90CF80CF70CB40B3D2BB81F97
:10069000542BF709F809F909FA09F70A0319F80AB6
:1006A0000319F90A0319FA0A7A08AA007908A900B5
:1006B0007808A8007708A700AA1F6B2BAC03AC161C
:1006C000A709A809A909AA09A70A0319A80A0319C9
:1006D000A90A0319AA0A3B30B3009A30B200CA3003
:1006E000B100B0010A30AE002B080319AC0A831424
:1006F0002730840083132A08B7002908B600280889
:10070000B5002708B4003308BB003208BA0031082E
:10071000B9003008B800C0227808F708031DA32BE1
:100720002B0A2E020319A32B2C080319A52B0F3912
:100730002E0203199D2B0318D52BAC1BD52B2C1B7C
:10074000A52B2030D12B2030AC05AC1EB32BAC1226
:100750002B08031DAC037708AC002D30B400352204
:100760002C08F700AC012B082E02031DC12B7708C3
:10077000AC002E30B40035222C08F7002030AC0538
:1007800000303030AC1ED12BAC122B08031DAC0353
:100790007708AC002D30B40035222C08F700AC01EE
:1007A0003030F7077708B400352283103308B700DC
:1007B0003208B6003108B5003008B400BB01BA01F8
:1007C000B9010A30B800C0227A08B3007908B20033
:1007D0007808B1007708B000AE0B772B8A110A12A7
:1007E000852C03081F39830083161F149F141F15BF
:1007F0009F1107309C0083138312102883161F104B
:100800009F141F159F151F1383121F139F17831605
:100810009F1783121F147E280030F8001F08C73965
:1008200078049F001030F700F70B142C00001F1500
:100830001F19182C1E08FA0083161E088312A70021
:100840001E08A800AA287A08A4007908A30078083E
:10085000A2007708A1001030F700F70B2D2C000044
:100860002408B7002308B6002208B5002108B40008
:10087000BB01BA017F30B9008630B800C9207A08C0
:10088000AA007908A9007808A8007708A7007A08C4
:10089000AE007908AD007808AC007708AB00B20173
:1008A000B101B0018930AF003E297A08A40079086F
:1008B000A3007808A2007708A1002408AA00230852
:1008C000A9002208A8002108A7000A2A7808A50084
:1008D00030302507A6002608A7002B2A0C30031766
:1008E0008D0000308F00031004300313A7006A2A24
:1008F000893084002408AA002308A9002208A8003F
:100900002108A7000230AB000F2B0230A700FA30FD
:0C091000B5002120A70B872C0C2C8D2C8F
:02400E003A373F
:00000001FF
;PIC16F877A
;CRC=8241  CREATED="26-jun-14 12:38"
