:10000000000001308A009E298E30F7002808F80091
:100010002708F900FA01F808031D18287908F800E4
:10002000F9010830F702F808031D1828F701202805
:100030000310F81B1F28F90DF80DF7031828F81303
:100040008A110A12D429270803199328AF002B0814
:1000500003199328AF07031834287F30AF02031C1D
:1000600093280319932838288130AF070318932861
:100070002F08F700F801F901FA012808B300B317B7
:100080002908B2002A08B1001830AF00B001311CB5
:1000900061282E08FA07031C5328F90A031D532868
:1000A000F80A0319B0172D08F907031C5A28F80A93
:1000B0000319B0172C08A900A9172908F807031875
:1000C000B017B00DF80CF90CFA0CB30CB20CB10C63
:1000D0000310AF0B46280130F70703189328F81BCD
:1000E0007828B30DFA0DF90DF80DF70303199328CD
:1000F000B31F8928FA0A031D8928F90A031D8928D4
:10010000F80A031D8928F80CF90CFA0CF70A0319F0
:1001100093282808B0002C08B006B01F9128F817C3
:100120009728F8139728F701F801F901FA018A11C5
:100130000A12F0292B0803195F29B7002F080319A9
:100140005F29B702031CA9287F30B70703185F296E
:10015000AF288130B702031C5F2903195F293708D4
:10016000F700F801F901FA01B6012C08B500B5173E
:100170002D08B4002E08B3001930B7003208B302BE
:100180000318D2280130B4020318D228B50203188C
:10019000D228B6020318D228B60AB50AB40A320821
:1001A000B30704293108B4020318ED280130B50261
:1001B0000318ED28B6020318ED28B60AB50A31086F
:1001C000B4073208B307031C0429B40A031D042929
:1001D000B50A031D0429B60A042930088038B5027F
:1001E000031803290130B60203180329B60A3008A0
:1001F0008038B5073108B407031CE128B50A031D90
:10020000E128B60AE1287A14B70B0729122903104E
:10021000B30DB40DB50DB60D0310FA0DF90DF80DB3
:10022000B80DBE28381C1A290310F80CF90CFA0C6A
:10023000B80C1D29F70303195F29B81B46290310C1
:10024000B30DB40DB50DB60D3208B3020318322943
:100250000130B40203183229B50203183229B6025C
:10026000031C55293108B40203183D290130B50299
:1002700003183D29B602031C552930088038B50201
:10028000031846290130B602031C5529FA0A031D3A
:100290005529F90A031D5529F80A031D5529F70A9E
:1002A00003195F29F80CF90CFA0C2C08B700300878
:1002B000B706B71F5D29F8176329F8136329F701FB
:1002C000F801F901FA018A110A12062A8E30F700A4
:1002D0002708F7022808F9002908F800F917F70895
:1002E00003197D290310F908031D7929F80803195A
:1002F0007D29F90CF80CF70B7229A81F8429F8093D
:10030000F909F80A0319F90A8A110A12172A28307A
:1003100084008313000803199B290330F800F701B8
:10032000F70B9029F80B8F293C30F700F70B962933
:100330009929800B8D298A110A12252A03081F3951
:100340008300403083169900A630980090308312C5
:10035000980083161F149F141F159F1107309C00CF
:1003600083131F109F141F159F151F1383121F1334
:100370009F1783169F1783121F140030F8001F0861
:10038000C73978049F001030F700F70BC52900002B
:100390001F151F19C9291E08FA0083161E0883128B
:1003A000A7001E08A80004287A08A4007908A30062
:1003B0007808A2007708A1001030F700F70BDE29BB
:1003C00000002408AA002308A9002208A800210888
:1003D000A700AE01AD012030AC008130AB00232876
:1003E0007A08AA007908A9007808A8007708A70069
:1003F0007A08AE007908AD007808AC007708AB0049
:10040000B201B101B0018930AF009A287A08A40086
:100410007908A3007808A2007708A1002408AA00A0
:100420002308A9002208A8002108A7006629780847
:10043000A50030302507A60026080C1E1D2A9900AD
:100440000230A700FA30A8008729A70B222ABD296D
:02045000282A58
:02400E003A373F
:00000001FF
;PIC16F877A
;CRC=0B74  CREATED="26-jun-14 10:33"
