:10000000000000308A001B2823308400831300087E
:10001000031918280330F800F701F70B0D28F80B27
:100020000C283C30F700F70B13281628800B0A2801
:100030008A110A12562803081F398300403083169C
:100040009900A630980090308312980083161F14F0
:100050009F141F159F1107309C0083131F109F14BE
:100060001F159F151F1383121F179F1783169F17A6
:1000700083121F140030F8001F08C73978049F004E
:100080001030F700F70B422800008C1E45281A0894
:10009000A10021080C1E4A2899000D300C1E4E2884
:1000A00099000830A200FA30A3000428A20B5328BC
:0400B0003A28592869
:02400E003A373F
:00000001FF
;PIC16F877A
;CRC=8DF8  CREATED="26-jun-14 10:10"
