:02000000622B71
:0E000600F201F101F001F801F30100300800F1
:100014007B15FB1F14280130F300F201F101F001FC
:08002400FA0DF20CFF30080098
:08002C00FA1FF2130030080076
:10003400FB14FB1F2428FF30F300F200F100F00052
:08004400FA0DF20CFF30080078
:0C004C00831203139B011D129D1208007B
:100058007B14FB1F3728F201FA1FFF30F200F10072
:0A006800F000FA0DF20CFF30080062
:06007200FB15FF30080041
:0C00780083120313950117129712080061
:0E0084008312031322088A002108820008005C
:100092007C187F28FC1850287C199E284928A0012A
:1000A2007208031D70287108F2007008F1007808C8
:1000B200F000F801A0157208031D70287108F20003
:1000C2007008F100F001A01120167208031D7028BB
:1000D2007108F200F101A015720803199228200894
:1000E200F302031D031C96280310F21B7F28F80D50
:1000F200F00DF10DF20DF30B762896287B1B701C88
:100102009A28F81F9A28F00A0319F10A0319F20A29
:10011200031D9A28F20CF10CF00CF30A03199E2825
:100122009A280130FC000320A1280230FC000A209A
:10013200A1280430FC001620A1280830FC001A2057
:0401420000000800B1
:10014600243083120313FD00FD0BA72800000800CE
:1001560083120313FB01FA01F9018030F800F10C58
:10016600F00C031CBF287408F90775080318750FEF
:10017600FA070318FB0A0310F01FC7287408FA07CA
:1001860075080318750FFB07FB0CFA0CF90CF80C35
:10019600031CB2287B08F3007A08F2007908F10004
:0601A6007808F0000800DB
:1001AC0083120313FB017308031D770803192D2910
:1001BC0072087606FA007708F3077E30031CEA28EB
:1001CC00F30203183029ED28F302031C33297208BB
:1001DC00F8007108FC007008FD00F817F617031002
:1001EC00F201F101F0011830A0007D1C0729740800
:1001FC00F00775080318750FF10776080318760FCA
:10020C00F207F20CF10CF00CF80CFC0CFD0C0310CA
:10021C00A00BFB28F21B1729F80DF00DF10DF20DB8
:10022C00F3037B1B701C2929F81F2929F00A0319D9
:10023C00F10A0319F20A031D2929F20CF10CF00C36
:10024C00F30A03193029FA1FF21300303529013053
:10025C000320352902301A20352904300A200000E9
:02026C00080088
:10026E0042208A110A128000840AA10A0319A20AE6
:08027E00F003031D37290800FD
:10028600831603131208013EF000F1010318F10A68
:1002960083122A08F400F501AB200630F20070083C
:1002A600F4007108F500720803195E29F50CF40CC8
:1002B600F513FF3E57290430F1007408F000710869
:1002C60003196929F00D7010FF3E63298312031389
:1002D60030307005F3007408F0007508F100F10C79
:1002E600F00CF113F10CF00CF11370089B000F30B9
:0802F6009D0573089D0408003A
:1002FE00831203137008F8007108F0007208F10001
:10030E007308F200F301FB01FC019E30F300FA01C9
:08031E000230FC004920080038
:10032600831203139F01C0309F0483161F179F1764
:1003360083122A08F000F00D7010F00D7010F00D09
:10034600701070089F041F14A3201F151F1DAD29D0
:100356000000A9291F101E08F100F00183161E08CF
:08036600F0040030F10408006E
:10036E0083120313FB01FC01F80173080319302AF1
:10037E00F2179E30F302F31BC7290319C729202A4F
:10038E00F309F30A08307302031CF529F300F80D84
:10039E007008F8007108F0007208F100F2010830E0
:1003AE007302031CF529F300F80D7008F8007108AC
:1003BE00F000F10108307302031CF529F300F80D6B
:1003CE007008F800F00108307302031CF529F300E1
:1003DE00F80DF8017308031D0310FF2973080319A4
:1003EE00FF290310F20CF10CF00CF80CF30BF829AA
:1003FE007B1B781C0D2A031C0D2AF80A0319F00A20
:10040E000319F10A0319F20AF21B2D2AFA1F302AD8
:10041E00F209F109F009F809F80A0319F00A0319AB
:10042E00F10A0319F20A302AF201F101F001F80182
:10043E00302A7B14FB1F332AF201FA1F332AF200F3
:10044E00F100F000F800FA0DF20C332A0130FC0036
:10045E00352A0030FC00352AFF30FC00FC08031959
:10046E00392A2C207208F3007108F2007008F1008E
:06047E007808F000080000
:10048400FF30831203138500FF3083168500831227
:1004940086018316860183128701831687018312DE
:1004A400121492107C30831692003C201214921085
:0A04B4007C30831692002620080019
:1004BE00831603131208013EF000F1010318F10A2E
:1004CE0083122A08F400F501AB200630F200700802
:1004DE00F4007108F500720803197A2AF50CF40C71
:1004EE00F513FF3E732A0430F1007408F000710812
:1004FE000319852AF00D7010FF3E7F2A8312031315
:10050E0030307005F3007408F0007508F100F10C3E
:10051E00F00CF113F10CF00CF113700895000F3084
:08052E0097057308970408000B
:10053600831603130711831212150C309704080053
:10054600831203137408003A031DBE2A7508003A85
:10055600031DBE2A7608003A031DBE2A7708003A14
:10056600031DBE2AFF30F000FF30F1007F30F2009D
:10057600FF30F300080083120313770803194D2B8D
:1005860073080319502B720876068039FA00F217A1
:10059600F617A0017208F8007108FC007008FD004B
:1005A6007408FD027508031C750FFC027608031C0F
:1005B600760FF802F801FC01FD01031CE92A03107D
:1005C600F20CF10CF00CF80C0130A0007708F302E5
:1005D600031CF32A7E302007F3070318532BF82A4F
:1005E6007E302007F307031C562B1830FA07FD0D43
:1005F600FC0DF80DF00DF10DF20DA00D7408F002D2
:100606007508031C750FF1027608031C760FF202BB
:10061600760DA004201C112B7D141C2B7408F007EA
:1006260075080318750FF10776080318760AF2079E
:100636007D10FA031F307A05031DFA2A7B1B7D1CE9
:10064600432B0310F00DF10DF20DA00D7408F0020E
:100656007508031C750FF1027608031C760FF2026B
:10066600760D20040139FD070318FC0A0319F80A60
:10067600031D432BF80CFC0CFD0CF30A0319532B3A
:10068600FA1FF8137808F2007C08F1007D08F000E4
:100696000030582B01303920582B02300320582BBC
:0E06A60004301A20582B08300A2000000800EB
:1006B400831603138710831212150C309D0408004F
:1006C4004222C830A700C830A800FF308316850036
:1006D400FF3086009B225A23AA015F22AA014321EC
:1006E400423083169F008312AA019321700883125B
:1006F400A3007108A400A501A6012308F0002408A2
:10070400F1002508F2002608F3007F210030F400F0
:100714000030F5007F30F6008630F700D620003038
:10072400F4000030F5000030F6008930F700A32211
:10073400B7217008A3007108A4007208A50073080B
:10074400A6007008A900061CAF2B8618AF2B290839
:10075400AA005F22AA014321BD2B0618B92B861CCF
:10076400B92BAA015F222908AA004321BD2BAA01A3
:100774005F22AA0143212130FC007630FD00FD0BED
:0C078400C12BFC0BC12B0000752BC72BF8
:02400E004A2F37
:00000001FF
