:1000000000308A00AF280000FF00030E8301A1002A
:100010007F08A0000A08A7008A01A00E0408A20019
:100020007708A3007808A4007908A5007A08A6003C
:10003000831383120B1E1E288B187F28220884002E
:100040002308F7002408F8002508F9002608FA001C
:1000500027088A00210E8300FF0E7F0E09002E3034
:10006000840083130008031943280130F800F701C6
:10007000F70B3828F80B37284A30F700F70B3E28E3
:100080004128800B352808002D08F83E03186E28FB
:10009000083E732805146E280130AE002F20051489
:1000A0006E280230AE002F2005146E280330AE00FB
:1000B0002F2005146E280430AE002F2005146E2862
:1000C0000530AE002F2005146E280630AE002F201C
:1000D00005146E280730AE002F2005140130AE0045
:1000E0002F20051082280A108A100A1182074A2838
:1000F0004C28512856285B28602865286A2828083B
:10010000AD0044288B108A111E28FF30831686000C
:1001100000308500831285010230A800BC280B1630
:100120008316011783128B15C0308B04BD28861CE3
:100130009E282A08A9000130AA00A1282A08A9009F
:10014000AA01A908031DAE282A0BAE282808063CE0
:100150000318AC28A801AE282B08A807C02803085C
:100160001F39830083168E158312A801A901AA01E5
:1001700007309F00831385288F280130AB00972814
:04018000BD28630033
:02400E00703F01
:00000001FF
;PIC16F628A
;CRC=B3A7  CREATED="17-abr-14 21:33"
