:1000000001308A009D290000FF00030E8301A1003A
:100010000A08A0008A010408A2007708A300780853
:10002000A4007908A5007A08A600831383128B1D0B
:100030001B280B1830288B1E1F280B193328220869
:1000400084002308F7002408F8002508F900260892
:10005000FA0020088A00210E8300FF0E7F0E09009F
:100060008A110A127C288A110A12B8280A108A10EA
:100070000A11820728340C34013406340A108A101D
:100080000A118207D734EE34DE34BE34ED34DD3469
:10009000BD34EB34DB34BB34E734B73477347B34F2
:1000A0007D347E3480340A108A100A11820730347D
:1000B00031343234333434343534363437343834FC
:1000C0003934413442344334443445344634363090
:1000D00084008313000803197B280330F800F7011C
:1000E000F70B7028F80B6F283C30F700F70B7628D9
:1000F0007928800B6D280800F03086000130AA00B6
:10010000FE30A800280886002808A9000310280D42
:10011000013EA800AA0A2A08043C031C93282908C7
:100120000602031982282908060203197C280608FA
:10013000A900AA012A083E2029020319A5282A0895
:100140000F3C031CA528AA0A9A282A08103C031968
:100150007C282A085320F800A9000130AB001E308B
:10016000B6006720F03086000B108A110A121F2893
:100170001B3081000B118A110A121F28C539F03279
:10018000F2302E172E00D03A65326510E53963390A
:10019000693169390000340EF039F7000F30080575
:1001A0007704880000000814D528D628000008101D
:1001B00008008810F03083168800831208150000AC
:1001C000081400000808080E0F39B40008100000D9
:1001D0000814EA280808080E0F39B3000810003088
:1001E000831688008312340EF700F030F705770885
:1001F0003304F8007808B300B31BDA28311C8810E8
:10020000311888140000081100000810320EB300E5
:100210000F30B3053308B400CB2032080F39B300D8
:10022000B400CB20080000308316880083128810A9
:1002300008110810A7018B1BA7178B130F30B600EE
:100240006720A71B8B170130AC002C08033C031C54
:1002500037290330B400CB20A7018B1BA7178B13C2
:100260000530B6006720A71B8B17AC0A2529023082
:10027000B400CB20AC012C08033C031C48292C08FB
:100280003620AD00B1012D08B200D920AC0A3B29BF
:100290008A110A12AA2983160108C03981001B306D
:1002A000831281008B168B1583168113C030831245
:1002B0008B048A110A12AB292B0B9A292908AC004E
:1002C0002C080C3A03196B29063A03197929023ACA
:1002D00003198F299429B1010130B200D920A70157
:1002E0008B1BA7178B130230B6006720A71B8B1739
:1002F00099290130AD000230AE002E0B80298329F0
:100300004030AF008429AF0101302D02AF072F0824
:100310008038B000B1013008B200D9209929B1016C
:100320001030B200D92099290130B1002C08B20058
:10033000D920AB018A110A12AC2903081F398300A6
:1003400083161F149F141F159F1107309C008313E1
:10035000831213294B295C29A7018B1BA7178B1329
:0E0360003230B6006720A71B8B17AB29630055
:02400E00723FFF
:00000001FF
;PIC16F877A
;CRC=512C  CREATED="19-jun-14 10:30"
