:1000000000308A00AA280000FF00030E8301A1002F
:100010007F08A0000A08A7008A01A00E0408A20019
:100020007708A3007808A4007908A5007A08A6003C
:10003000831383128B1D1E280B183D280B1E2228AC
:100040008B183928220884002308F7002408F800B8
:100050002508F9002608FA0027088A00210E8300E7
:10006000FF0E7F0E0900051C3728051038280514DF
:10007000080033208B108A11222833200B108A119C
:100080002228FF3083168600003085008312850108
:100090002910061A2914A910861AA9142911061B59
:1000A0002915A911861BA915B4280B16831601134F
:1000B000C03083128B04B528061E672829186728CC
:1000C000A8018B1BA8178B133320A81B8B17861E28
:1000D0007228A9187228A8018B1BA8178B1333202C
:1000E000A81B8B17061F7D2829197D28A8018B1BAB
:1000F000A8178B133320A81B8B17861F8828A919D4
:100100008828A8018B1BA8178B133320A81B8B17DB
:100110002910061A2914A910861AA9142911061BD8
:100120002915A911861BA915B6282A308400831326
:1001300000080319A9280130F800F701F70B9E28E1
:10014000F80B9D284A30F700F70BA428A728800B4E
:100150009B28B92803081F39830083168E150730A2
:1001600083129F008313412855285C283230AA004F
:060170009528B52863008C
:02400E00703F01
:00000001FF
;PIC16F628A
;CRC=7647  CREATED="21-jun-14 20:36"
