:10000000000001308A00E929FF00030E8301A100EE
:100010000A08A0008A010408A2007708A300780853
:10002000A4007908A5007A08A600831383128B1E0A
:100030001B280B192C28220884002308F700240809
:10004000F8002508F9002608FA0020088A00210E89
:100050008300FF0E7F0E09008A110A122F28043038
:10006000860605308100A70A0319A80A061C4A283B
:1000700027080A3C031D4228A808031D4228A8019E
:10008000A701861527082902031D4A2828082A02E5
:1000900003198611061C8611861C602827080A3C55
:1000A000031D5828A808031D5828A801A7010616F3
:1000B00027082902031D602828082A0203190612AE
:1000C000861C06120B118A110A121B288E30F700AB
:1000D0002E08F8002D08F900FA01F808031D7A2807
:1000E0007908F800F9010830F702F808031D7A28AA
:1000F000F70182280310F81B8128F90DF80DF7038A
:100100007A28F8138A110A12322A2D080319F528C1
:10011000B50031080319F528B507031896287F3074
:10012000B502031CF5280319F5289A288130B50774
:100130000318F5283508F700F801F901FA012E082F
:10014000B900B9172F08B8003008B7001830B5004B
:10015000B601371CC3283408FA07031CB528F90A6E
:10016000031DB528F80A0319B6173308F907031C4D
:10017000BC28F80A0319B6173208AF00AF172F08CA
:10018000F8070318B617B60DF80CF90CFA0CB90CF1
:10019000B80CB70C0310B50BA8280130F7070318EB
:1001A000F528F81BDA28B90DFA0DF90DF80DF7034B
:1001B0000319F528B91FEB28FA0A031DEB28F90AE1
:1001C000031DEB28F80A031DEB28F80CF90CFA0CB8
:1001D000F70A0319F5282E08B6003208B606B61F2E
:1001E000F328F817F928F813F928F701F801F901AD
:1001F000FA018A110A12412A2F080319C129BB00EA
:1002000033080319C129BB02031C0B297F30BB072C
:100210000318C12911298130BB02031CC12903190C
:10022000C1293B08F700F801F901FA01BA013008C9
:10023000B900B9173108B8003208B7001930BB004F
:100240003608B702031834290130B80203183429DC
:10025000B90203183429BA0203183429BA0AB90AB0
:10026000B80A3608B70766293508B80203184F29B7
:100270000130B90203184F29BA0203184F29BA0AEC
:10028000B90A3508B8073608B707031C6629B80A43
:10029000031D6629B90A031D6629BA0A66293408AE
:1002A0008038B902031865290130BA02031865299C
:1002B000BA0A34088038B9073508B807031C43293F
:1002C000B90A031D4329BA0A43297A14BB0B6929C9
:1002D00074290310B70DB80DB90DBA0D0310FA0D3E
:1002E000F90DF80DBC0D20293C1C7C290310F80CDD
:1002F000F90CFA0CBC0C7F29F7030319C129BC1BAC
:10030000A8290310B70DB80DB90DBA0D3608B702FC
:10031000031894290130B80203189429B90203186C
:100320009429BA02031CB7293508B80203189F297B
:100330000130B90203189F29BA02031CB7293408F7
:100340008038B9020318A8290130BA02031CB72962
:10035000FA0A031DB729F90A031DB729F80A031D74
:10036000B729F70A0319C129F80CF90CFA0C30085F
:10037000BB003408BB06BB1FBF29F817C529F813FB
:10038000C529F701F801F901FA018A110A12572A61
:100390008E30F7002B08F7022C08F9002D08F80022
:1003A000F917F7080319DF290310F908031DDB29E2
:1003B000F8080319DF29F90CF80CF70BD429AC1F46
:1003C000E629F809F909F80A0319F90A8A110A1243
:1003D000602A03081F39830083161F149F141F15FA
:1003E0009F1107309C008313053083128100C030B9
:1003F0008316860088018312880183161F109F14BC
:100400001F159F151F1383121F179F1783169F1306
:1004100083121F1483160108C7390838810083121C
:100420008B16C0308B04A801A701AA01A9010030D6
:10043000F8001F08C73978049F002030F700F70B39
:100440001F2A222A00001F151F19242A1E08FA003D
:1004500083161E088312AB001E08AC00AE002B08EA
:10046000AD0066287A08B0007908AF007808AE00C1
:100470007708AD00B401B3012030B2008230B10082
:1004800085287A08AE007908AD007808AC007708B6
:10049000AB007A08B2007908B1007808B00077089C
:1004A000AF00B601B501B4018930B300FC287A0869
:1004B000AE007908AD007808AC007708AB00C82919
:1004C0007908AA007808A9002030F700F70B662AFF
:0804D000692A0000172A6B2ABB
:02400E003A373F
:00000001FF
;PIC16F877A
;CRC=7261  CREATED="24-jun-14 09:30"
