:1000000000308A0039280000FF00030E8301A100A0
:100010000A08A0008A010408A2007708A300780853
:10002000A4007908A5007A08A600831383120B1E8A
:100030001B288B182C28220884002308F70024088A
:10004000F8002508F9002608FA0020088A00210E89
:100050008300FF0E7F0E09008A110A122F28861CCA
:10006000332888013528FF3088008B108A110A1246
:100070001B2803081F39830083161F149F141F15A4
:100080009F1107309C008313FF30860000308800EA
:1000900083120B1683160117C03083128B0488015C
:0400A0005028630081
:02400E00723FFF
:00000001FF
;PIC16F877A
;CRC=9CA6  CREATED="17-abr-14 19:36"
