:1000000006308A001D2E00000A108A100A1182078D
:1000100028340C34013406340A108A100A1182077D
:10002000D734EE34DE34BE34ED34DD34BD34EB345D
:10003000DB34BB34E734B73477347B347D347E34FF
:1000400080340A108A100A11820730343134323475
:1000500033343434353436343734383439342A345C
:100060002334443443344234413449376739E53921
:100070006510E330EE306C000C00D4326336611052
:100080006937F630EC34E43000000A000C00CC3262
:10009000633A75396105E634EE30EC34FA30E43019
:1000A00000010C0049376739E5396510EE3A653BC8
:1000B0006F05E330EE306C003E308400831300089F
:1000C00003196F280630F800F701F70B6528F80BC5
:1000D00064287B30F700F70B6B28800B6228080040
:1000E000450EF039F7000F3008057704880000004E
:1000F00008140230F700F70B7B287E280000081058
:1001000008008810F030831688008312081500005C
:10011000081400000808080E0F39C5000810000078
:1001200008149228932800000808080E0F39C4000C
:1001300008100030831688008312450EF700F03057
:10014000F70577084404F8007808C400C41B822827
:10015000421C881042188814000008110000081082
:10016000430EC4000F30C4054408C5007020430886
:100170000F39C400C50070200800003083168800C5
:1001800083128810081108100F30BE005C20013067
:10019000AE002E08033C031CD5280330C500702098
:1001A0000530BE005C20AE0AC9280230C5007020B0
:1001B000AE012E08033C031CE6282E080420AF00E5
:1001C000C2012F08C3008120AE0AD9288A110A1261
:1001D000382E3D080C3A0319F428063A0319FC2876
:1001E000023A031912291729C2010130C3008120E4
:1001F0000230BE005C201C290130BE000230BF006E
:100200003F0B032906294030C0000729C0010130F7
:100210003E02C00740088038C100C2014108C30047
:1002200081201C29C2011030C30081201C2901300B
:10023000C2003D08C300812008000B08B0008B13EA
:10024000831603178C170C140000000083120C088F
:100250007F39031964290313B10003170D08031331
:10026000B20003170F080313B3003108BD00E920E3
:10027000320803178D000313330803178F0083160A
:100280008C170C140000000083120C0D0E0D7F392A
:10029000031964290313B10003170D080313B200F7
:1002A00003170F080313B3003108BD00E92032081B
:1002B00003178D000313330803178F008D0A0319EA
:1002C0008F0A0313202903170313B01B8B17080091
:1002D000F03083168600F030831286008316811377
:1002E00083120B100130A2000B1C74291E30BE00BB
:1002F0005C20FE30A000200886002008A10003102A
:10030000200D013EA000A20A2208043C031C8C29F7
:100310002108060203197B2921080602031D9229E0
:1003200083166B290608A100A20122080C202102D5
:100330000319A02922080F3C031CA029A20A952911
:100340002208103C031DA62983166B2922082120B0
:10035000F800A1000B100B1CAB291E30BE005C2066
:100360002108F8008A110A12402E8E30F700310859
:10037000F8003008F900FA01F808031DC9297908C6
:10038000F800F9010830F702F808031DC929F70140
:10039000D1290310F81BD029F90DF80DF703C9294D
:1003A000F81308002F08B6003308B606B61FDD297B
:1003B00003110310AF1B0314102A2F08B6003208D4
:1003C000B7002E08B7020319EB29B61F102A03083D
:1003D000013A8300102A3308B7002F08B702031927
:1003E000F729B61F102A0308013A8300102A34089F
:1003F000B7003008B7020319032AB61F102A0308F2
:10040000013A8300102A3508B7003108B7020319F2
:100410000F2AB61F102A0308013A8300102A03107E
:1004200008003D080319812AC50041080319812AE3
:10043000C5070318222A7F30C502031C812A03192D
:10044000812A262A8130C5070318812A4508F7002A
:10045000F801F901FA013E08C900C9173F08C800B0
:100460004008C7001830C500C601471C4F2A440881
:10047000FA07031C412AF90A031D412AF80A031945
:10048000C6174308F907031C482AF80A0319C617B8
:100490004208BF00BF173F08F8070318C617C60D6C
:1004A000F80CF90CFA0CC90CC80CC70C0310C50BDE
:1004B000342A0130F7070318812AF81B662AC90D70
:1004C000FA0DF90DF80DF7030319812AC91F772AD0
:1004D000FA0A031D772AF90A031D772AF80A031D71
:1004E000772AF80CF90CFA0CF70A0319812A3E084E
:1004F000C6004208C606C61F7F2AF817852AF813C9
:10050000852AF701F801F901FA0108003708F80116
:10051000360203188E2A3608F7009A2AF7010830A7
:10052000B800B60DF70D370877020318F700F80D7D
:10053000B80B912A08002030311E3030B20030084C
:10054000F700B01FAB2AF709F70A7708B0002D3083
:10055000B200B11731143008B6006430B7008622FB
:100560007708B00030307807B3003008B6000A30A2
:10057000B700862230307707B50030307807B400F6
:100580003208F700303033020319CA2AB114B11B04
:100590003115DE2A3208B3002030B2003030340288
:1005A0000319D62A3114B11BB114DE2A031D3114EC
:1005B000031DDE2A3308B4002030B3003119E52AC8
:1005C000B118E82A3118EB2AEE2A3208BD00E920DA
:1005D0003308BD00E9203408BD00E9203508BD001E
:1005E000E92008008318F72A453084008313F701B7
:1005F000F801F901FA01C501C601C701C8014408A3
:100600004304420441040319352B2030C900031070
:10061000BD0DBE0DBF0DC00DC50DC60DC70DC80D5E
:1006200044084802031D1E2B43084702031D1E2BCE
:1006300042084602031D1E2B41084502031C2F2BB6
:100640004108C5024208031C420FC6024308031CAE
:10065000430FC7024408031C440FC8020314F70DDC
:10066000F80DF90DFA0DC90B072B45088000840A17
:1006700046088000840A47088000840A48088000F1
:1006800008000408B5003408B7000319602B3308CC
:10069000C0003208BF003108BE003008BD00C401F0
:1006A000C3012030C2008230C10011227A08B30099
:1006B0007908B2007808B1007708B000B70B472B73
:1006C0003308C0003208BF003108BE003008BD004A
:1006D0003D08B63CBD00FA013E08C100BE1703103C
:1006E000BE0CBF0CC00CFA0CF90CF80CF70CBD0BCF
:1006F0006F2BC11F862BF709F809F909FA09F70AC8
:100700000319F80A0319F90A0319FA0A7A08B30057
:100710007908B2007808B1007708B000B31F9D2BAC
:10072000B503B516B009B109B209B309B00A031986
:10073000B10A0319B20A0319B30A3B30BC009A305C
:10074000BB00CA30BA00B9010A30B7003408031937
:10075000B50A83143030840083133308C000320894
:10076000BF003108BE003008BD003C08C4003B0893
:10077000C3003A08C2003908C100F2227808F7081D
:10078000031DD52B340A37020319D52B350803195D
:10079000D72B0F3937020319CF2B0318072CB51BA2
:1007A000072C351BD72B2030032C2030B505B51E68
:1007B000E52BB5123408031DB5037708B5002D30BD
:1007C000BD00E9203508F700B50134083702031DE4
:1007D000F32B7708B5002E30BD00E9203508F7006F
:1007E0002030B50500303030B51E032CB51234086A
:1007F000031DB5037708B5002D30BD00E92035088D
:10080000F700B5013030F7077708BD00E920831005
:100810003C08C0003B08BF003A08BE003908BD00D4
:10082000C401C301C2010A30C100F2227A08BC002F
:100830007908BB007808BA007708B900B70BA92B74
:100840008A110A12F32DAE08031D2D2C0030F8007A
:100850001F08C73978049F003C2C2E0B362C08301B
:10086000F8001F08C73978049F003C2C0030F800BE
:100870001F08C73978049F00AF012F08313C031CC3
:10088000002E1F151F19422C83161E088312AC0060
:100890001E08AD002D08B1002C08B000B5217A0863
:1008A000C0007908BF007808BE007708BD00C40109
:1008B000C3012030C2008130C10011227A08B30088
:1008C0007908B2007808B1007708B0003308B700A3
:1008D0003208B6003108B5003008B400BB01C030A2
:1008E000BA007F30B9008830B800340803193A2DB7
:1008F000C000380803193A2DC002031C842C7F3035
:10090000C00703183A2D8A2C8130C002031C3A2DEF
:1009100003193A2D4008F700F801F901FA01BF0167
:100920003508BE00BE173608BD003708BC001930B8
:10093000C0003B08BC020318AD2C0130BD020318F7
:10094000AD2CBE020318AD2CBF020318AD2CBF0A9C
:10095000BE0ABD0A3B08BC07DF2C3A08BD020318DB
:10096000C82C0130BE020318C82CBF020318C82CC3
:10097000BF0ABE0A3A08BD073B08BC07031CDF2CB0
:10098000BD0A031DDF2CBE0A031DDF2CBF0ADF2CAE
:1009900039088038BE020318DE2C0130BF0203186C
:1009A000DE2CBF0A39088038BE073A08BD07031C91
:1009B000BC2CBE0A031DBC2CBF0ABC2C7A14C00B75
:1009C000E22CED2C0310BC0DBD0DBE0DBF0D0310B0
:1009D000FA0DF90DF80DC10D992C411CF52C0310E1
:1009E000F80CF90CFA0CC10CF82CF70303193A2D8A
:1009F000C11B212D0310BC0DBD0DBE0DBF0D3B084D
:100A0000BC0203180D2D0130BD0203180D2DBE02CE
:100A100003180D2DBF02031C302D3A08BD02031828
:100A2000182D0130BE020318182DBF02031C302DF3
:100A300039088038BE020318212D0130BF02031C83
:100A4000302DFA0A031D302DF90A031D302DF80A46
:100A5000031D302DF70A03193A2DF80CF90CFA0C86
:100A60003508C0003908C006C01F382DF8173E2DC4
:100A7000F8133E2DF701F801F901FA017A08AB00ED
:100A80007908AA007808A9007708A8000A30BE00F3
:100A90005C204130BD00E9204430BD00E9204330F6
:100AA000BD00E9202E08B0001830B1009B22203094
:100AB000BD00E9203A30BD00E9202030BD00E9202A
:100AC000103084002D08B1002C08B000B8010408D3
:100AD000B7003810831B3814310EF038B300B30759
:100AE000E23EB400323EB60031080F39B407B40715
:100AF000B607E93EB500B507B507300E0F39B507A3
:100B0000B607B50DB60DB609B60D30080F39B607E4
:100B1000B30D0730B2000A30B607B503031C8C2DA5
:100B2000B507B403031C902DB407B303031C942D25
:100B3000B307B203031C982D3230840083130730AF
:100B400037053713840736300402031937170008B6
:100B5000F700031DB32D371BB32D371AC52DB71959
:100B6000B32D2030B62DB71537123030F707B1014D
:100B70000408B0003110831B31147708BD00E92050
:100B800030088400831331188317840A371FA32D7C
:100B9000453003178D0000308F0003131D214130B5
:100BA000BD00E9204430BD00E9204330BD00E9200C
:100BB0002E08B0001830B1009B222030BD00E92083
:100BC0003A30BD00E9202030BD00E92089308400A2
:100BD0002B08B3002A08B2002908B1002808B00089
:100BE0000230B400412BA30A6430BE005C204630C2
:100BF00003178D0000308F0003131D21AF0A3D2C19
:100C0000473003178D0000308F0003131D21023081
:100C1000B000FA30BE005C20B00B092E5130031733
:100C20008D0000308F0003131D21523003178D00FB
:100C300000308F0003131D21080003081F398300B3
:100C400083161F149F141F159F1107309C008313D8
:100C50008312A30183161F109F101F159F111F13CE
:100C600083121F139F1783169F1783121F14BD280B
:100C7000353003178D0000308F0003131D216829C4
:100C8000B1017808B000B5217A08A7007908A6005C
:100C90007808A5007708A4002708B1002608B0004E
:100CA0002508AF002408AE00B501B401B301B201BC
:100CB000D2210319952E3C3003178D0000308F0090
:100CC00003131D212708B1002608B0002508AF0036
:100CD0002408AE00B501B4014430B3008430B20042
:100CE000D221031D762EAE012324922E2708B100B7
:100CF0002608B0002508AF002408AE00B501B401F5
:100D00004830B3008430B200D221031D8B2E013055
:100D1000AE002324922E3D3003178D0000308F004B
:0E0D200003131D213230BE005C203F2E630005
:02400E00723FFF
:00000001FF
;PIC16F877A
;CRC=2DA2  CREATED="19-jun-14 13:32"
