:1000000005308A002E2D00000A108A100A1182077E
:1000100028340C34013406340A108A100A1182077D
:10002000D734EE34DE34BE34ED34DD34BD34EB345D
:10003000DB34BB34E734B73477347B347D347E34FF
:1000400080340A108A100A11820730343134323475
:1000500033343434353436343734383439342A345C
:10006000233444344334423441340C00D4326336B4
:1000700061106937F630EC34E43000000A003C309F
:10008000840083130008031952280630F800F70192
:10009000F70B4828F80B47287B30F700F70B4E2862
:1000A000800B45280800430EF039F7000F30080593
:1000B00077048800000008140230F700F70B5E2870
:1000C00061280000081008008810F03083168800AE
:1000D000831208150000081400000808080E0F39E4
:1000E000C3000810000008147528762800000808CE
:1000F000080E0F39C20008100030831688008312E2
:10010000430EF700F030F70577084204F80078084E
:10011000C200C21B6528401C8810401888140000CB
:10012000081100000810410EC2000F30C20542083D
:10013000C300532041080F39C200C30053200800F8
:1001400000308316880083128810081108100F30C1
:10015000BC003F200130AD002D08033C031CB82833
:100160000330C30053200530BC003F20AD0AAC284B
:100170000230C3005320AD012D08033C031CC928E5
:100180002D080420AE00C0012E08C1006420AD0A75
:10019000BC288A110A12462DF03083168600F030F2
:1001A000831286008316811383120B100130A20084
:1001B0000B1CD8281E30BC003F20FE30A0002008B9
:1001C00086002008A1000310200D013EA000A20A15
:1001D0002208043C031CF028210806020319DF282A
:1001E00021080602031DF6288316CF280608A10061
:1001F000A20122080C2021020319042922080F3C25
:10020000031C0429A20AF9282208103C031D0A290C
:100210008316CF2822082120F800A1000B100B1C08
:100220000F291E30BC003F202108F8008A110A1255
:10023000472D8E30F7002F08F8002E08F900FA013C
:10024000F808031D2D297908F800F9010830F70294
:10025000F808031D2D29F70135290310F81B34294F
:10026000F90DF80DF7032D29F81308002E08B50035
:100270003208B506B51F412903110310AE1B031444
:1002800074292E08B5003108B6002D08B6020319EE
:100290004F29B51F74290308013A830074293208D5
:1002A000B6002E08B60203195B29B51F742903088E
:1002B000013A830074293308B6002F08B6020319E7
:1002C0006729B51F74290308013A8300742934088B
:1002D000B6003008B60203197329B51F7429030844
:1002E000013A83007429031008003B080C3A0319F3
:1002F0008029063A03198829023A03199E29A3295D
:10030000C0010130C10064200230BC003F20A82998
:100310000130BC000230BD003D0B8F2992294030D6
:10032000BE009329BE0101303C02BE073E08803862
:10033000BF00C0013F08C1006420A829C0011030DF
:10034000C1006420A8290130C0003B08C10064201E
:1003500008000B08AE008B13831603178C170C14C0
:100360000000000083120C087F390319F0290313E1
:10037000AF0003170D080313B00003170F08031392
:10038000B1002F08BB007521300803178D0003133F
:10039000310803178F0083168C170C14000000001F
:1003A00083120C0D0E0D7F390319F0290313AF00D2
:1003B00003170D080313B00003170F080313B10050
:1003C0002F08BB007521300803178D000313310877
:1003D00003178F008D0A03198F0A0313AC29031723
:1003E0000313AE1B8B1708003508F80134020318FD
:1003F000FC293408F700082AF7010830B600B40DCC
:10040000F70D350877020318F700F80DB60BFF2932
:10041000080020302F1E3030B0002E08F700AE1F2D
:10042000192AF709F70A7708AE002D30B000AF1788
:100430002F142E08B4006430B500F4217708AE0004
:1004400030307807B1002E08B4000A30B500F4212E
:1004500030307707B30030307807B2003008F7004B
:10046000303031020319382AAF14AF1B2F154C2A34
:100470003008B1002030B000303032020319442A75
:100480002F14AF1BAF144C2A031D2F14031D4C2A2D
:100490003108B2002030B1002F19532AAF18562A64
:1004A0002F18592A5C2A3008BB0075213108BB007F
:1004B00075213208BB0075213308BB007521080087
:1004C0008318652A433084008313F701F801F9018A
:1004D000FA01C301C401C501C60142084104400438
:1004E0003F040319A32A2030C7000310BB0DBC0D25
:1004F000BD0DBE0DC30DC40DC50DC60D420846028F
:10050000031D8C2A41084502031D8C2A4008440221
:10051000031D8C2A3F084302031C9D2A3F08C30287
:100520004008031C400FC4024108031C410FC502D0
:100530004208031C420FC6020314F70DF80DF90D13
:10054000FA0DC70B752A43088000840A440880000E
:10055000840A45088000840A4608800008000408D0
:10056000B3003208B5000319412B3108BE00300832
:10057000BD002F08BC002E08BB00C201C101203005
:10058000C0008230BF003B080319332BC3003F0873
:100590000319332BC3070318D42A7F30C302031C6B
:1005A000332B0319332BD82A8130C3070318332B7D
:1005B0004308F700F801F901FA013C08C700C71722
:1005C0003D08C6003E08C5001830C300C401451CE4
:1005D000012B4208FA07031CF32AF90A031DF32A28
:1005E000F80A0319C4174108F907031CFA2AF80A84
:1005F0000319C4174008BD00BD173D08F8070318CC
:10060000C417C40DF80CF90CFA0CC70CC60CC50CB9
:100610000310C30BE62A0130F7070318332BF81B2E
:10062000182BC70DFA0DF90DF80DF7030319332B2D
:10063000C71F292BFA0A031D292BF90A031D292B91
:10064000F80A031D292BF80CF90CFA0CF70A031908
:10065000332B3C08C4004008C406C41F312BF817D4
:10066000372BF813372BF701F801F901FA017A0853
:10067000B1007908B0007808AF007708AE00B50B7C
:10068000B52A3108BE003008BD002F08BC002E0876
:10069000BB003B08B63CBB00FA013C08BF00BC17DE
:1006A0000310BC0CBD0CBE0CFA0CF90CF80CF70CCA
:1006B000BB0B502BBF1F672BF709F809F909FA0983
:1006C000F70A0319F80A0319F90A0319FA0A7A084A
:1006D000B1007908B0007808AF007708AE00B11F0C
:1006E0007E2BB303B316AE09AF09B009B109AE0A48
:1006F0000319AF0A0319B00A0319B10A3B30BA0053
:100700009A30B900CA30B800B7010A30B5003208D3
:100710000319B30A83142E30840083133108BE00FA
:100720003008BD002F08BC002E08BB003A08C200EC
:100730003908C1003808C0003708BF0060227808B7
:10074000F708031DB62B320A35020319B62B3308FE
:100750000319B82B0F3935020319B02B0318E82BF6
:10076000B31BE82B331BB82B2030E42B2030B30510
:10077000B31EC62BB3123208031DB3037708B300B0
:100780002D30BB0075213308F700B3013208350264
:10079000031DD42B7708B3002E30BB00752133081E
:1007A000F7002030B30500303030B31EE42BB31215
:1007B0003208031DB3037708B3002D30BB00752149
:1007C0003308F700B3013030F7077708BB00752115
:1007D00083103A08BE003908BD003808BC0037084D
:1007E000BB00C201C101C0010A30BF0060227A080B
:1007F000BA007908B9007808B8007708B700B50BD7
:100800008A2B8A110A122D2DAD08031D0E2C0030E3
:10081000F8001F08C73978049F001D2C2D0B172CDA
:100820000830F8001F08C73978049F001D2C0030DD
:10083000F8001F08C73978049F001F151F191E2CC8
:1008400083161E088312AB001E08AC002C08AF00F4
:100850002B08AE00B1010530B0001030B200F70136
:10086000FA01AF0CAE0C031C3B2C3008F707031841
:10087000FA0A3108FA07FA0CF70CF90CF80CB20B6B
:10088000312C7908AF007808AE002F08B1002E088F
:10089000B0000330B300FF30B200F801F901F701F6
:1008A000FA013308031D572C32080319712C10303C
:1008B000B4000310B00DB10DF70DFA0D33087A0234
:1008C000031D642C32087702031C6D2C3208F702DA
:1008D000031CFA033308FA020314F80DF90DB40BE4
:1008E000592C7908FA007808AE007908AF00192170
:1008F0007A08AA007908A9007808A8007708A70054
:100900009630BC003F204130BB0075214430BB0015
:1009100075214330BB0075212D08AE001830AF00A3
:1009200009222030BB0075213A30BB0075212030F0
:10093000BB007521103084002C08AF002B08AE00DE
:10094000B6010408B5003610831B36142F0EF0389C
:10095000B100B107E23EB200323EB4002F080F39B9
:10096000B207B207B407E93EB300B307B3072E0ED0
:100970000F39B307B407B30DB40DB409B40D2E0885
:100980000F39B407B10D0730B0000A30B407B30314
:10099000031CC62CB307B203031CCA2CB207B10355
:1009A000031CCE2CB107B003031CD22C30308400C2
:1009B00083130730350535138407343004020319D7
:1009C00035170008F700031DED2C351BED2C351AEB
:1009D000FF2CB519ED2C2030F02CB5153512303028
:1009E000F707AF010408AE002F10831B2F14770800
:1009F000BB0075212E08840083132F188317840AE7
:100A0000351FDD2C3E3003178D0000308F0003139F
:100A1000A9214130BB0075214430BB007521433012
:100A2000BB0075212D08AE001830AF000922203020
:100A3000BB0075213A30BB0075212030BB00752109
:100A4000893084002A08B1002908B0002808AF00C6
:100A50002708AE000230B200AF2A080003081F3991
:100A6000830083161F149F141F159F1107309C00CD
:100A700083131F109F101F159F111F1383121F1325
:100A80009F1783169F1783121F14A028CC28AF012D
:100A90007808AE0019217A08A6007908A500780820
:100AA000A4007708A3002608B0002508AF0024089A
:100AB000AE002308AD00B401B301B201B10136218B
:100AC00003199C2D353003178D0000308F00031360
:100AD000A9212608B0002508AF002408AE0023088D
:100AE000AD00B401B3014430B2008430B10036210E
:100AF000031D7D2DAD010424992D2608B000250885
:100B0000AF002408AE002308AD00B401B3014830A3
:100B1000B2008430B1003621031D922D0130AD00AA
:100B20000424992D363003178D0000308F000313F5
:0C0B3000A9213230BC003F20462D63009C
:02400E00723FFF
:00000001FF
;PIC16F877A
;CRC=BC76  CREATED="19-jun-14 11:45"
