:1000000000308A005B280000FF00030E8301A1007E
:100010007F08A0000A08A7008A01A00E0408A20019
:100020007708A3007808A4007908A5007A08A6003C
:10003000831383128B1D1E280B183D280B1E2228AC
:100040008B183928220884002308F7002408F800B8
:100050002508F9002608FA0027088A00210E8300E7
:10006000FF0E7F0E0900051C3728051038280514DF
:10007000080033208B108A112228061E41283320C5
:100080004728861A4728061B4728861F47280B1033
:100090008A112228FF308316860000308500FF3049
:1000A0008312850062280B168316011783128B15A5
:1000B000C0308B04632803081F39830007309F007A
:0A00C00083134A28532863286300C5
:02400E00303F41
:00000001FF
;PIC16F628
;CRC=68E1  CREATED="15-jun-14 04:09"
