:1000000000308A00B7280000FF00030E8301A10022
:100010000A08A0008A010408A2007708A300780853
:10002000A4007908A5007A08A600831383120B1E8A
:100030001B288B182C28220884002308F70024088A
:10004000F8002508F9002608FA0020088A00210E89
:100050008300FF0E7F0E09008A110A1280282D30BE
:10006000840083130008031942280630F800F701C2
:10007000F70B3828F80B37287B30F700F70B3E28B2
:10008000800B352808002C08F83E03186D28083E20
:10009000742808146D280130AD002F2008146D2835
:1000A0000230AD002F2008146D280330AD002F2042
:1000B00008146D280430AD002F2008146D28053079
:1000C000AD002F2008146D280630AD002F20081435
:1000D0006D280730AD002F2008140130AD002F200F
:1000E00008108A110A1283280A108A100A1182073E
:1000F00049284B28502855285A285F286428692801
:100100002708AC0043288B108A110A121B28FF30E5
:100110008316860000308800831288010230A70011
:100120008A110A12C7280B168316011783128B1522
:10013000C0308B048A110A12C828861CA4282908FA
:10014000A8000130A900A7282908A800A901A8082B
:10015000031DB428290BB4282708063C0318B2282D
:10016000A701B4282A08A7078A110A12CB28030876
:100170001F398300A701A801A90183161F149F142A
:100180001F159F1107309C00831383128728932823
:0A0190000130AA009D28C828630072
:02400E00723FFF
:00000001FF
;PIC16F877A
;CRC=0C7C  CREATED="14-jun-14 20:57"
