:1000000000308A0064280000FF00030E8301A10075
:100010000A08A0008A010408A2007708A300780853
:10002000A4007908A5007A08A600831383128B1D0B
:100030001B280B1830280B1E1F288B18332822086A
:1000400084002308F7002408F8002508F900260892
:10005000FA0020088A00210E8300FF0E7F0E09009F
:100060008A110A1241288A110A123C28081C3A28CF
:1000700008103B280814080036208B108A110A1239
:100080001F28061E452836204B28861A4B28061B9B
:100090004B28861F4B280B108A110A121F28FF308D
:1000A0008316860000308800FF30831288008A1192
:1000B0000A1271280B168316011783128B15C03094
:1000C0008B048A110A12722803081F3983008316D1
:1000D0001F149F141F159F1107309C008313831258
:0800E0004F285A287228630022
:02400E00723FFF
:00000001FF
;PIC16F877A
;CRC=44FA  CREATED="15-jun-14 04:07"
