:10000000000004308A00FD2C0A108A100A118207B1
:1000100028340C34013406340C2B3A1025330000FC
:100020000C2B3A1025330000353084008313000870
:10003000031928280330F800F701F70B1D28F80BE7
:100040001C283C30F700F70B23282628800B1A28A1
:1000500008003C0EF039F7000F30080577048800DF
:100060000000081433283428000008100800881005
:10007000F030831688008312081500000814000071
:100080000808080E0F39BC000810000008144828A2
:100090000808080E0F39BB000810003083168800CE
:1000A00083123C0EF700F030F70577083B04F800A8
:1000B0007808BB00BB1B3828391C881039188814F5
:1000C00000000811000008103A0EBB000F30BB05FD
:1000D0003B08BC0029203A080F39BB00BC0029208E
:1000E0000800003083168800831288100811081059
:1000F0000F30B50014200130A7002708033C031C73
:1001000089280330BC0029200530B5001420A70A37
:100110007D280230BC002920A7012708033C031CCE
:100120009A2827080420A800B9012808BA00372017
:10013000A70A8D288A110A121D2D8E30F700280873
:10014000F8002708F900FA01F808031DB12879081A
:10015000F800F9010830F702F808031DB128F7018B
:10016000B9280310F81BB828F90DF80DF703B128CA
:10017000F8138A110A12342D340803192C29BC00F3
:10018000380803192C29BC070318CD287F30BC027E
:10019000031C2C2903192C29D1288130BC070318F2
:1001A0002C293C08F700F801F901FA013508C000D4
:1001B000C0173608BF003708BE001830BC00BD01AC
:1001C0003E1CFA283B08FA07031CEC28F90A031D19
:1001D000EC28F80A0319BD173A08F907031CF3289D
:1001E000F80A0319BD173908B600B6173608F8071C
:1001F0000318BD17BD0DF80CF90CFA0CC00CBF0CA0
:10020000BE0C0310BC0BDF280130F70703182C29A4
:10021000F81B1129C00DFA0DF90DF80DF70303199C
:100220002C29C01F2229FA0A031D2229F90A031DBD
:100230002229F80A031D2229F80CF90CFA0CF70AF6
:1002400003192C293508BD003908BD06BD1F2A2910
:10025000F8173029F8133029F701F801F901FA01EC
:1002600008002B080319F629B7002F080319F629EF
:10027000B702031C40297F30B7070318F629462927
:100280008130B702031CF6290319F6293708F70055
:10029000F801F901FA01B6012C08B500B5172D08CF
:1002A000B4002E08B3001930B7003208B3020318A7
:1002B00069290130B40203186929B50203186929B4
:1002C000B60203186929B60AB50AB40A3208B30798
:1002D0009B293108B402031884290130B5020318A0
:1002E0008429B60203188429B60AB50A3108B4076E
:1002F0003208B307031C9B29B40A031D9B29B50AC6
:10030000031D9B29B60A9B2930088038B5020318C3
:100310009A290130B60203189A29B60A30088038A3
:10032000B5073108B407031C7829B50A031D7829DD
:10033000B60A78297A14B70B9E29A9290310B30DA0
:10034000B40DB50DB60D0310FA0DF90DF80DB80D7D
:100350005529381CB1290310F80CF90CFA0CB80C0B
:10036000B429F7030319F629B81BDD290310B30DCF
:10037000B40DB50DB60D3208B3020318C92901300A
:10038000B4020318C929B5020318C929B602031C0F
:10039000EC293108B4020318D4290130B50203183E
:1003A000D429B602031CEC2930088038B5020318A2
:1003B000DD290130B602031CEC29FA0A031DEC29E1
:1003C000F90A031DEC29F80A031DEC29F70A0319A1
:1003D000F629F80CF90CFA0C2C08B7003008B7060F
:1003E000B71FF429F817FA29F813FA29F701F801C9
:1003F000F901FA018A110A12662D8E30F7002708DA
:10040000F7022808F9002908F800F917F708031976
:10041000142A0310F908031D102AF8080319142AD6
:10042000F90CF80CF70B092AA81F1B2AF809F9097F
:10043000F80A0319F90A8A110A12772D0B08A80085
:100440008B13831603178C170C140000000003187D
:10045000512A83120C087F390313A90003170D08D2
:100460000313AA0003170F080313AB0029080C1E7F
:10047000372A99002A0803178D0003132B08031746
:100480008F0083168C170C140000000083120313D6
:10049000A70B4B2A4E2A83160317512A712A83165B
:1004A000031783120C0D0E0D7F390313A9000317D8
:1004B0000D080313AA0003170F080313AB00290844
:1004C0000C1E602A99002A0803178D0003132B08BD
:1004D00003178F008D0A03198F0A03100313A70B4C
:1004E000212AA81B8B178A110A12862D3408B63CC4
:1004F000B400FA013508B800B5170310B50CB60CF6
:10050000B70CFA0CF90CF80CF70CB40B7D2AB81FD9
:10051000942AF709F809F909FA09F70A0319F80AF8
:100520000319F90A0319FA0A080083189A2A3C30B9
:1005300084008313F701F801F901FA01BC01BD0140
:10054000BE01BF013B083A04390438040319D82A14
:100550002030C0000310B40DB50DB60DB70DBC0DA5
:10056000BD0DBE0DBF0D3B083F02031DC12A3A0859
:100570003E02031DC12A39083D02031DC12A380865
:100580003C02031CD22A3808BC023908031C390F6C
:10059000BD023A08031C3A0FBE023B08031C3B0F86
:1005A000BF020314F70DF80DF90DFA0DC00BAA2ABE
:1005B0003C088000840A3D088000840A3E088000D0
:1005C000840A3F08800008000408AC002B08AE0035
:1005D0000319032B2A08B7002908B6002808B5001C
:1005E0002708B400BB01BA012030B9008230B8003E
:1005F000BC207A08AA007908A9007808A800770822
:10060000A700AE0BEA2A2A08B7002908B600280876
:10061000B5002708B40076227A08AA007908A90054
:100620007808A8007708A700AA1F232BAC03AC16F4
:10063000A709A809A909AA09A70A0319A80A031959
:10064000A90A0319AA0A3B30B3009A30B200CA3093
:10065000B100B0010A30AE002B080319AC0A8314B4
:100660002730840083132A08B7002908B600280819
:10067000B5002708B4003308BB003208BA003108BF
:10068000B9003008B80095227808F708031D5B2BE5
:100690002B0A2E0203195B2B2C0803195D2B0F3933
:1006A0002E020319552B0318912BAC1B912B2C1BDD
:1006B0005D2B20308C2B2030AC05AC1E6C2BAC128B
:1006C0002B08031DAC037708AC002D300C1E662BE5
:1006D00099002C08F700AC012B082E02031D7B2B80
:1006E0007708AC002E300C1E732B99002C08F700F5
:1006F0002030AC0500303030AC1E8C2BAC122B08F7
:10070000031DAC037708AC002D300C1E852B99001F
:100710002C08F700AC013030F70777080C1E8E2B41
:10072000990083103308B7003208B6003108B500CD
:100730003008B400BB01BA01B9010A30B8009522F3
:100740007A08B3007908B2007808B1007708B000E1
:10075000AE0B2F2B8A110A12932D34080C3A031971
:10076000B82B063A0319C02B023A0319D72BDC2BFE
:10077000B9010130BA0037200230B5001420E12B56
:100780000130B5000230B600360BC72BCA2B403003
:10079000B700CB2BB70101303502B70737088038D7
:1007A000B800B9013808BA0037200000E12BB901C0
:1007B0001030BA003720E12B0130B9003408BA00FC
:1007C000372008000B08A8008B13831603178C171B
:1007D0000C14000000000318142C83120C087F393D
:1007E0000313A90003170D080313AA0003170F082A
:1007F0000313AB002908B400AD232A0803178D00AA
:1008000003132B0803178F0083168C170C1400009A
:10081000000083120313A70B0E2C112C8316031751
:10082000142C332C8316031783120C0D0E0D7F39F5
:100830000313A90003170D080313AA0003170F08D9
:100840000313AB002908B400AD232A0803178D0059
:1008500003132B0803178F008D0A03198F0A031047
:100860000313A70BE52BA81B8B178A110A12A22DC5
:100870000408AC002B08AE000319572C2A08B70057
:100880002908B6002808B5002708B400BB01BA0142
:100890002030B9008230B800BC207A08AA0079085C
:1008A000A9007808A8007708A700AE0B3E2C2A08FC
:1008B000B7002908B6002808B5002708B40076223A
:1008C0007A08AA007908A9007808A8007708A70084
:1008D000AA1F772CAC03AC16A709A809A909AA0975
:1008E000A70A0319A80A0319A90A0319AA0A3B307F
:1008F000B3009A30B200CA30B100B0010A30AE0085
:100900002B080319AC0A83142730840083132A08A8
:10091000B7002908B6002808B5002708B400330836
:10092000BB003208BA003108B9003008B80095227F
:100930007808F708031DAF2C2B0A2E020319AF2CE1
:100940002C080319B12C0F392E020319A92C0318F6
:10095000E12CAC1BE12C2C1BB12C2030DD2C2030E9
:10096000AC05AC1EBF2CAC122B08031DAC037708E2
:10097000AC002D30B400AD232C08F700AC012B08DF
:100980002E02031DCD2C7708AC002E30B400AD2311
:100990002C08F7002030AC0500303030AC1EDD2CC8
:1009A000AC122B08031DAC037708AC002D30B4004B
:1009B000AD232C08F700AC013030F7077708B400FE
:1009C000AD2383103308B7003208B6003108B500F4
:1009D0003008B400BB01BA01B9010A30B800952251
:1009E0007A08B3007908B2007808B1007708B0003F
:1009F000AE0B832C8A110A12AF2D03081F39830016
:100A0000403083169900A6309800903083129800E9
:100A100083161F149F141F159F1107309C0083130A
:100A20001F109F141F159F151F1383121F139F174D
:100A300083169F1783121F1471280030F8001F08B7
:100A4000C73978049F001030F700F70B252D000000
:100A50001F151F19292D1E08FA0083161E08831260
:100A6000A7001E08A8009D287A08A4007908A30002
:100A70007808A2007708A1001030F700F70B3E2D90
:100A800000002408B7002308B6002208B50021089A
:100A9000B400BB01BA012030B9008130B800BC20DD
:100AA0007A08AA007908A9007808A8007708A700A2
:100AB0007A08AE007908AD007808AC007708AB0082
:100AC000B201B101B0018930AF0031297A08A40028
:100AD0007908A3007808A2007708A1002408AA00DA
:100AE0002308A9002208A8002108A700FD297808EA
:100AF000A50030302507A6000C3003178D0000300C
:100B00008F00031004300313A7001E2A89308400CD
:100B10002408AA002308A9002208A8002108A70089
:100B20000230AB00E42A1030F700F70B952D0000DF
:100B3000103003178D0000308F00031004300313B2
:100B4000A700E22B893084002408AA002308A9000A
:100B50002208A8002108A7000230AB00382C023080
:100B6000A700FA30B5001420A70BB12D1D2DB72D0D
:02400E003A373F
:00000001FF
;PIC16F877A
;CRC=72CB  CREATED="26-jun-14 10:49"
